{
  "contractName": "CrowdFunding",
  "abi": [
    {
      "constant": true,
      "inputs": [],
      "name": "campaignCount",
      "outputs": [
        {
          "internalType": "uint256",
          "name": "",
          "type": "uint256"
        }
      ],
      "payable": false,
      "stateMutability": "view",
      "type": "function"
    },
    {
      "constant": true,
      "inputs": [
        {
          "internalType": "uint256",
          "name": "",
          "type": "uint256"
        }
      ],
      "name": "campaigns",
      "outputs": [
        {
          "internalType": "bytes",
          "name": "title",
          "type": "bytes"
        },
        {
          "internalType": "bytes",
          "name": "description",
          "type": "bytes"
        },
        {
          "internalType": "bytes",
          "name": "teamMembers",
          "type": "bytes"
        },
        {
          "internalType": "uint256",
          "name": "minContribution",
          "type": "uint256"
        },
        {
          "internalType": "uint256",
          "name": "balence",
          "type": "uint256"
        },
        {
          "internalType": "bytes32",
          "name": "password",
          "type": "bytes32"
        },
        {
          "internalType": "uint8",
          "name": "accStatus",
          "type": "uint8"
        },
        {
          "internalType": "uint32",
          "name": "investedCount",
          "type": "uint32"
        },
        {
          "internalType": "uint32",
          "name": "requestCount",
          "type": "uint32"
        }
      ],
      "payable": false,
      "stateMutability": "view",
      "type": "function"
    },
    {
      "constant": true,
      "inputs": [
        {
          "internalType": "address",
          "name": "",
          "type": "address"
        }
      ],
      "name": "campaignsAddrToIndex",
      "outputs": [
        {
          "internalType": "uint256",
          "name": "",
          "type": "uint256"
        }
      ],
      "payable": false,
      "stateMutability": "view",
      "type": "function"
    },
    {
      "constant": true,
      "inputs": [
        {
          "internalType": "uint256",
          "name": "",
          "type": "uint256"
        }
      ],
      "name": "investedCampaigns",
      "outputs": [
        {
          "internalType": "uint256",
          "name": "campID",
          "type": "uint256"
        },
        {
          "internalType": "address",
          "name": "investedBy",
          "type": "address"
        },
        {
          "internalType": "uint256",
          "name": "amount",
          "type": "uint256"
        },
        {
          "internalType": "uint256",
          "name": "balance",
          "type": "uint256"
        }
      ],
      "payable": false,
      "stateMutability": "view",
      "type": "function"
    },
    {
      "constant": true,
      "inputs": [],
      "name": "investmentCount",
      "outputs": [
        {
          "internalType": "uint256",
          "name": "",
          "type": "uint256"
        }
      ],
      "payable": false,
      "stateMutability": "view",
      "type": "function"
    },
    {
      "constant": true,
      "inputs": [
        {
          "internalType": "address",
          "name": "",
          "type": "address"
        }
      ],
      "name": "investors",
      "outputs": [
        {
          "internalType": "bytes",
          "name": "name",
          "type": "bytes"
        },
        {
          "internalType": "bytes32",
          "name": "password",
          "type": "bytes32"
        },
        {
          "internalType": "uint8",
          "name": "accStatus",
          "type": "uint8"
        },
        {
          "internalType": "uint32",
          "name": "investedCount",
          "type": "uint32"
        },
        {
          "internalType": "uint32",
          "name": "requestCount",
          "type": "uint32"
        }
      ],
      "payable": false,
      "stateMutability": "view",
      "type": "function"
    },
    {
      "constant": true,
      "inputs": [],
      "name": "requestCount",
      "outputs": [
        {
          "internalType": "uint256",
          "name": "",
          "type": "uint256"
        }
      ],
      "payable": false,
      "stateMutability": "view",
      "type": "function"
    },
    {
      "constant": true,
      "inputs": [
        {
          "internalType": "uint256",
          "name": "",
          "type": "uint256"
        }
      ],
      "name": "requests",
      "outputs": [
        {
          "internalType": "uint256",
          "name": "campID",
          "type": "uint256"
        },
        {
          "internalType": "bytes",
          "name": "campTitle",
          "type": "bytes"
        },
        {
          "internalType": "address payable",
          "name": "recipient",
          "type": "address"
        },
        {
          "internalType": "address",
          "name": "payer",
          "type": "address"
        },
        {
          "internalType": "bytes",
          "name": "purpose",
          "type": "bytes"
        },
        {
          "internalType": "uint256",
          "name": "amount",
          "type": "uint256"
        },
        {
          "internalType": "uint256",
          "name": "status",
          "type": "uint256"
        }
      ],
      "payable": false,
      "stateMutability": "view",
      "type": "function"
    },
    {
      "constant": false,
      "inputs": [
        {
          "internalType": "bytes",
          "name": "name",
          "type": "bytes"
        },
        {
          "internalType": "bytes",
          "name": "password",
          "type": "bytes"
        }
      ],
      "name": "registerInvestor",
      "outputs": [],
      "payable": false,
      "stateMutability": "nonpayable",
      "type": "function"
    },
    {
      "constant": false,
      "inputs": [
        {
          "internalType": "bytes",
          "name": "title",
          "type": "bytes"
        },
        {
          "internalType": "bytes",
          "name": "description",
          "type": "bytes"
        },
        {
          "internalType": "bytes",
          "name": "teamMembers",
          "type": "bytes"
        },
        {
          "internalType": "uint256",
          "name": "minContribution",
          "type": "uint256"
        },
        {
          "internalType": "bytes",
          "name": "password",
          "type": "bytes"
        }
      ],
      "name": "registerCampaign",
      "outputs": [],
      "payable": false,
      "stateMutability": "nonpayable",
      "type": "function"
    },
    {
      "constant": true,
      "inputs": [
        {
          "internalType": "bytes",
          "name": "password",
          "type": "bytes"
        }
      ],
      "name": "loginInvestor",
      "outputs": [
        {
          "internalType": "bool",
          "name": "",
          "type": "bool"
        }
      ],
      "payable": false,
      "stateMutability": "view",
      "type": "function"
    },
    {
      "constant": true,
      "inputs": [
        {
          "internalType": "bytes",
          "name": "password",
          "type": "bytes"
        }
      ],
      "name": "loginCampaign",
      "outputs": [
        {
          "internalType": "bool",
          "name": "",
          "type": "bool"
        },
        {
          "internalType": "uint256",
          "name": "",
          "type": "uint256"
        }
      ],
      "payable": false,
      "stateMutability": "view",
      "type": "function"
    },
    {
      "constant": false,
      "inputs": [
        {
          "internalType": "uint256",
          "name": "campID",
          "type": "uint256"
        }
      ],
      "name": "invest",
      "outputs": [],
      "payable": true,
      "stateMutability": "payable",
      "type": "function"
    },
    {
      "constant": true,
      "inputs": [
        {
          "internalType": "uint256",
          "name": "campID",
          "type": "uint256"
        },
        {
          "internalType": "uint32",
          "name": "index",
          "type": "uint32"
        }
      ],
      "name": "campaignInvestedDetails",
      "outputs": [
        {
          "internalType": "address",
          "name": "",
          "type": "address"
        },
        {
          "internalType": "uint256",
          "name": "",
          "type": "uint256"
        },
        {
          "internalType": "uint256",
          "name": "",
          "type": "uint256"
        }
      ],
      "payable": false,
      "stateMutability": "view",
      "type": "function"
    },
    {
      "constant": true,
      "inputs": [
        {
          "internalType": "uint32",
          "name": "index",
          "type": "uint32"
        }
      ],
      "name": "investorInvestedDetails",
      "outputs": [
        {
          "internalType": "uint256",
          "name": "",
          "type": "uint256"
        }
      ],
      "payable": false,
      "stateMutability": "view",
      "type": "function"
    },
    {
      "constant": false,
      "inputs": [
        {
          "internalType": "address payable",
          "name": "recipient",
          "type": "address"
        },
        {
          "internalType": "address",
          "name": "payer",
          "type": "address"
        },
        {
          "internalType": "uint256",
          "name": "campID",
          "type": "uint256"
        },
        {
          "internalType": "bytes",
          "name": "campTitle",
          "type": "bytes"
        },
        {
          "internalType": "uint256",
          "name": "amount",
          "type": "uint256"
        },
        {
          "internalType": "bytes",
          "name": "purpose",
          "type": "bytes"
        }
      ],
      "name": "requestPayment",
      "outputs": [],
      "payable": false,
      "stateMutability": "nonpayable",
      "type": "function"
    },
    {
      "constant": false,
      "inputs": [
        {
          "internalType": "uint256",
          "name": "requestID",
          "type": "uint256"
        },
        {
          "internalType": "uint256",
          "name": "responce",
          "type": "uint256"
        }
      ],
      "name": "respondPayment",
      "outputs": [],
      "payable": false,
      "stateMutability": "nonpayable",
      "type": "function"
    },
    {
      "constant": true,
      "inputs": [
        {
          "internalType": "uint256",
          "name": "campID",
          "type": "uint256"
        },
        {
          "internalType": "uint32",
          "name": "index",
          "type": "uint32"
        }
      ],
      "name": "campaignrequestDetails",
      "outputs": [
        {
          "internalType": "address",
          "name": "",
          "type": "address"
        },
        {
          "internalType": "address",
          "name": "",
          "type": "address"
        },
        {
          "internalType": "bytes",
          "name": "",
          "type": "bytes"
        },
        {
          "internalType": "uint256",
          "name": "",
          "type": "uint256"
        },
        {
          "internalType": "uint256",
          "name": "",
          "type": "uint256"
        }
      ],
      "payable": false,
      "stateMutability": "view",
      "type": "function"
    },
    {
      "constant": true,
      "inputs": [
        {
          "internalType": "uint32",
          "name": "index",
          "type": "uint32"
        }
      ],
      "name": "investorrequestDetails",
      "outputs": [
        {
          "internalType": "address",
          "name": "",
          "type": "address"
        },
        {
          "internalType": "bytes",
          "name": "",
          "type": "bytes"
        },
        {
          "internalType": "bytes",
          "name": "",
          "type": "bytes"
        },
        {
          "internalType": "uint256",
          "name": "",
          "type": "uint256"
        },
        {
          "internalType": "uint256",
          "name": "",
          "type": "uint256"
        },
        {
          "internalType": "uint256",
          "name": "",
          "type": "uint256"
        }
      ],
      "payable": false,
      "stateMutability": "view",
      "type": "function"
    }
  ],
  "bytecode": "0x608060405260006003556000600555600060075534801561001f57600080fd5b50612a9b8061002f6000396000f3fe6080604052600436106101145760003560e01c80637274e30d116100a0578063b6daa91911610064578063b6daa91914610e0e578063da924b8714610ea7578063e9a1e77914610eec578063f300ec6214610fd3578063fe2063cf1461110b57610114565b80637274e30d14610a8357806381d12c5814610aae57806392baa99514610c4957806394172fba14610d29578063a471066a14610db957610114565b806332f9dc17116100e757806332f9dc17146103ab578063415b3a3e1461050a5780635badbe4c146107a157806365f6810f146107cc5780636f7bc9be1461097f57610114565b806304e0add514610119578063141961bc1461017e578063246b0e5c146103525780632afcf4801461037d575b600080fd5b34801561012557600080fd5b506101686004803603602081101561013c57600080fd5b81019080803573ffffffffffffffffffffffffffffffffffffffff169060200190929190505050611279565b6040518082815260200191505060405180910390f35b34801561018a57600080fd5b506101b7600480360360208110156101a157600080fd5b8101908080359060200190929190505050611291565b604051808060200180602001806020018a81526020018981526020018881526020018760ff1660ff1681526020018663ffffffff1663ffffffff1681526020018563ffffffff1663ffffffff16815260200184810384528d818151815260200191508051906020019080838360005b83811015610241578082015181840152602081019050610226565b50505050905090810190601f16801561026e5780820380516001836020036101000a031916815260200191505b5084810383528c818151815260200191508051906020019080838360005b838110156102a757808201518184015260208101905061028c565b50505050905090810190601f1680156102d45780820380516001836020036101000a031916815260200191505b5084810382528b818151815260200191508051906020019080838360005b8381101561030d5780820151818401526020810190506102f2565b50505050905090810190601f16801561033a5780820380516001836020036101000a031916815260200191505b509c5050505050505050505050505060405180910390f35b34801561035e57600080fd5b506103676114d4565b6040518082815260200191505060405180910390f35b6103a96004803603602081101561039357600080fd5b81019080803590602001909291905050506114da565b005b3480156103b757600080fd5b50610508600480360360408110156103ce57600080fd5b81019080803590602001906401000000008111156103eb57600080fd5b8201836020820111156103fd57600080fd5b8035906020019184600183028401116401000000008311171561041f57600080fd5b91908080601f016020809104026020016040519081016040528093929190818152602001838380828437600081840152601f19601f8201169050808301925050505050505091929192908035906020019064010000000081111561048257600080fd5b82018360208201111561049457600080fd5b803590602001918460018302840111640100000000831117156104b657600080fd5b91908080601f016020809104026020016040519081016040528093929190818152602001838380828437600081840152601f19601f8201169050808301925050505050505091929192905050506117f1565b005b34801561051657600080fd5b5061079f600480360360a081101561052d57600080fd5b810190808035906020019064010000000081111561054a57600080fd5b82018360208201111561055c57600080fd5b8035906020019184600183028401116401000000008311171561057e57600080fd5b91908080601f016020809104026020016040519081016040528093929190818152602001838380828437600081840152601f19601f820116905080830192505050505050509192919290803590602001906401000000008111156105e157600080fd5b8201836020820111156105f357600080fd5b8035906020019184600183028401116401000000008311171561061557600080fd5b91908080601f016020809104026020016040519081016040528093929190818152602001838380828437600081840152601f19601f8201169050808301925050505050505091929192908035906020019064010000000081111561067857600080fd5b82018360208201111561068a57600080fd5b803590602001918460018302840111640100000000831117156106ac57600080fd5b91908080601f016020809104026020016040519081016040528093929190818152602001838380828437600081840152601f19601f820116905080830192505050505050509192919290803590602001909291908035906020019064010000000081111561071957600080fd5b82018360208201111561072b57600080fd5b8035906020019184600183028401116401000000008311171561074d57600080fd5b91908080601f016020809104026020016040519081016040528093929190818152602001838380828437600081840152601f19601f8201169050808301925050505050505091929192905050506119bb565b005b3480156107ad57600080fd5b506107b6611ba1565b6040518082815260200191505060405180910390f35b3480156107d857600080fd5b5061097d600480360360c08110156107ef57600080fd5b81019080803573ffffffffffffffffffffffffffffffffffffffff169060200190929190803573ffffffffffffffffffffffffffffffffffffffff169060200190929190803590602001909291908035906020019064010000000081111561085657600080fd5b82018360208201111561086857600080fd5b8035906020019184600183028401116401000000008311171561088a57600080fd5b91908080601f016020809104026020016040519081016040528093929190818152602001838380828437600081840152601f19601f82011690508083019250505050505050919291929080359060200190929190803590602001906401000000008111156108f757600080fd5b82018360208201111561090957600080fd5b8035906020019184600183028401116401000000008311171561092b57600080fd5b91908080601f016020809104026020016040519081016040528093929190818152602001838380828437600081840152601f19601f820116905080830192505050505050509192919290505050611ba7565b005b34801561098b57600080fd5b506109ce600480360360208110156109a257600080fd5b81019080803573ffffffffffffffffffffffffffffffffffffffff169060200190929190505050611f42565b60405180806020018681526020018560ff1660ff1681526020018463ffffffff1663ffffffff1681526020018363ffffffff1663ffffffff168152602001828103825287818151815260200191508051906020019080838360005b83811015610a44578082015181840152602081019050610a29565b50505050905090810190601f168015610a715780820380516001836020036101000a031916815260200191505b50965050505050505060405180910390f35b348015610a8f57600080fd5b50610a9861203d565b6040518082815260200191505060405180910390f35b348015610aba57600080fd5b50610ae760048036036020811015610ad157600080fd5b8101908080359060200190929190505050612043565b60405180888152602001806020018773ffffffffffffffffffffffffffffffffffffffff1673ffffffffffffffffffffffffffffffffffffffff1681526020018673ffffffffffffffffffffffffffffffffffffffff1673ffffffffffffffffffffffffffffffffffffffff16815260200180602001858152602001848152602001838103835289818151815260200191508051906020019080838360005b83811015610ba1578082015181840152602081019050610b86565b50505050905090810190601f168015610bce5780820380516001836020036101000a031916815260200191505b50838103825286818151815260200191508051906020019080838360005b83811015610c07578082015181840152602081019050610bec565b50505050905090810190601f168015610c345780820380516001836020036101000a031916815260200191505b50995050505050505050505060405180910390f35b348015610c5557600080fd5b50610d0f60048036036020811015610c6c57600080fd5b8101908080359060200190640100000000811115610c8957600080fd5b820183602082011115610c9b57600080fd5b80359060200191846001830284011164010000000083111715610cbd57600080fd5b91908080601f016020809104026020016040519081016040528093929190818152602001838380828437600081840152601f19601f8201169050808301925050505050505091929192905050506121f5565b604051808215151515815260200191505060405180910390f35b348015610d3557600080fd5b50610d6260048036036020811015610d4c57600080fd5b8101908080359060200190929190505050612260565b604051808581526020018473ffffffffffffffffffffffffffffffffffffffff1673ffffffffffffffffffffffffffffffffffffffff16815260200183815260200182815260200194505050505060405180910390f35b348015610dc557600080fd5b50610df860048036036020811015610ddc57600080fd5b81019080803563ffffffff1690602001909291905050506122b0565b6040518082815260200191505060405180910390f35b348015610e1a57600080fd5b50610e5760048036036040811015610e3157600080fd5b8101908080359060200190929190803563ffffffff169060200190929190505050612333565b604051808473ffffffffffffffffffffffffffffffffffffffff1673ffffffffffffffffffffffffffffffffffffffff168152602001838152602001828152602001935050505060405180910390f35b348015610eb357600080fd5b50610eea60048036036040811015610eca57600080fd5b8101908080359060200190929190803590602001909291905050506123e2565b005b348015610ef857600080fd5b50610fb260048036036020811015610f0f57600080fd5b8101908080359060200190640100000000811115610f2c57600080fd5b820183602082011115610f3e57600080fd5b80359060200191846001830284011164010000000083111715610f6057600080fd5b91908080601f016020809104026020016040519081016040528093929190818152602001838380828437600081840152601f19601f82011690508083019250505050505050919291929050505061253b565b60405180831515151581526020018281526020019250505060405180910390f35b348015610fdf57600080fd5b5061101c60048036036040811015610ff657600080fd5b8101908080359060200190929190803563ffffffff1690602001909291905050506125cc565b604051808673ffffffffffffffffffffffffffffffffffffffff1673ffffffffffffffffffffffffffffffffffffffff1681526020018573ffffffffffffffffffffffffffffffffffffffff1673ffffffffffffffffffffffffffffffffffffffff16815260200180602001848152602001838152602001828103825285818151815260200191508051906020019080838360005b838110156110cc5780820151818401526020810190506110b1565b50505050905090810190601f1680156110f95780820380516001836020036101000a031916815260200191505b50965050505050505060405180910390f35b34801561111757600080fd5b5061114a6004803603602081101561112e57600080fd5b81019080803563ffffffff169060200190929190505050612772565b604051808773ffffffffffffffffffffffffffffffffffffffff1673ffffffffffffffffffffffffffffffffffffffff1681526020018060200180602001868152602001858152602001848152602001838103835288818151815260200191508051906020019080838360005b838110156111d25780820151818401526020810190506111b7565b50505050905090810190601f1680156111ff5780820380516001836020036101000a031916815260200191505b50838103825287818151815260200191508051906020019080838360005b8381101561123857808201518184015260208101905061121d565b50505050905090810190601f1680156112655780820380516001836020036101000a031916815260200191505b509850505050505050505060405180910390f35b60026020528060005260406000206000915090505481565b6001602052806000526040600020600091509050806000018054600181600116156101000203166002900480601f01602080910402602001604051908101604052809291908181526020018280546001816001161561010002031660029004801561133d5780601f106113125761010080835404028352916020019161133d565b820191906000526020600020905b81548152906001019060200180831161132057829003601f168201915b505050505090806001018054600181600116156101000203166002900480601f0160208091040260200160405190810160405280929190818152602001828054600181600116156101000203166002900480156113db5780601f106113b0576101008083540402835291602001916113db565b820191906000526020600020905b8154815290600101906020018083116113be57829003601f168201915b505050505090806002018054600181600116156101000203166002900480601f0160208091040260200160405190810160405280929190818152602001828054600181600116156101000203166002900480156114795780601f1061144e57610100808354040283529160200191611479565b820191906000526020600020905b81548152906001019060200180831161145c57829003601f168201915b5050505050908060030154908060040154908060050154908060060160009054906101000a900460ff16908060060160019054906101000a900463ffffffff16908060080160009054906101000a900463ffffffff16905089565b60055481565b60016005540160058190555080600460006005548152602001908152602001600020600001819055503360046000600554815260200190815260200160002060010160006101000a81548173ffffffffffffffffffffffffffffffffffffffff021916908373ffffffffffffffffffffffffffffffffffffffff16021790555034600460006005548152602001908152602001600020600201819055503460046000600554815260200190815260200160002060030181905550600180600083815260200190815260200160002060060160019054906101000a900463ffffffff16016001600083815260200190815260200160002060060160016101000a81548163ffffffff021916908363ffffffff1602179055503460016000838152602001908152602001600020600401540160016000838152602001908152602001600020600401819055506005546001600083815260200190815260200160002060070160006001600085815260200190815260200160002060060160019054906101000a900463ffffffff1663ffffffff1663ffffffff1681526020019081526020016000208190555060016000803373ffffffffffffffffffffffffffffffffffffffff1673ffffffffffffffffffffffffffffffffffffffff16815260200190815260200160002060020160019054906101000a900463ffffffff16016000803373ffffffffffffffffffffffffffffffffffffffff1673ffffffffffffffffffffffffffffffffffffffff16815260200190815260200160002060020160016101000a81548163ffffffff021916908363ffffffff1602179055506005546000803373ffffffffffffffffffffffffffffffffffffffff1673ffffffffffffffffffffffffffffffffffffffff16815260200190815260200160002060030160008060003373ffffffffffffffffffffffffffffffffffffffff1673ffffffffffffffffffffffffffffffffffffffff16815260200190815260200160002060020160019054906101000a900463ffffffff1663ffffffff1663ffffffff1681526020019081526020016000208190555050565b600081805190602001209050826000803373ffffffffffffffffffffffffffffffffffffffff1673ffffffffffffffffffffffffffffffffffffffff16815260200190815260200160002060000190805190602001906118529291906129c1565b50806000803373ffffffffffffffffffffffffffffffffffffffff1673ffffffffffffffffffffffffffffffffffffffff1681526020019081526020016000206001018190555060016000803373ffffffffffffffffffffffffffffffffffffffff1673ffffffffffffffffffffffffffffffffffffffff16815260200190815260200160002060020160006101000a81548160ff021916908360ff16021790555060008060003373ffffffffffffffffffffffffffffffffffffffff1673ffffffffffffffffffffffffffffffffffffffff16815260200190815260200160002060020160016101000a81548163ffffffff021916908363ffffffff16021790555060008060003373ffffffffffffffffffffffffffffffffffffffff1673ffffffffffffffffffffffffffffffffffffffff16815260200190815260200160002060040160006101000a81548163ffffffff021916908363ffffffff160217905550505050565b6001600354016003819055506000818051906020012090508560016000600354815260200190815260200160002060000190805190602001906119ff9291906129c1565b50846001600060035481526020019081526020016000206001019080519060200190611a2c9291906129c1565b50836001600060035481526020019081526020016000206002019080519060200190611a599291906129c1565b50826001600060035481526020019081526020016000206003018190555080600160006003548152602001908152602001600020600501819055506001806000600354815260200190815260200160002060060160006101000a81548160ff021916908360ff160217905550600060016000600354815260200190815260200160002060060160016101000a81548163ffffffff021916908363ffffffff160217905550600060016000600354815260200190815260200160002060080160006101000a81548163ffffffff021916908363ffffffff160217905550600060016000600354815260200190815260200160002060040181905550600354600260003373ffffffffffffffffffffffffffffffffffffffff1673ffffffffffffffffffffffffffffffffffffffff16815260200190815260200160002081905550505050505050565b60075481565b6001600754016007819055508360066000600754815260200190815260200160002060000181905550826006600060075481526020019081526020016000206001019080519060200190611bfc9291906129c1565b508560066000600754815260200190815260200160002060020160006101000a81548173ffffffffffffffffffffffffffffffffffffffff021916908373ffffffffffffffffffffffffffffffffffffffff1602179055508460066000600754815260200190815260200160002060030160006101000a81548173ffffffffffffffffffffffffffffffffffffffff021916908373ffffffffffffffffffffffffffffffffffffffff160217905550806006600060075481526020019081526020016000206004019080519060200190611cd79291906129c1565b508160066000600754815260200190815260200160002060050181905550600060066000600754815260200190815260200160002060060181905550600180600086815260200190815260200160002060080160009054906101000a900463ffffffff16016001600086815260200190815260200160002060080160006101000a81548163ffffffff021916908363ffffffff1602179055506007546001600086815260200190815260200160002060090160006001600088815260200190815260200160002060080160009054906101000a900463ffffffff1663ffffffff1663ffffffff1681526020019081526020016000208190555060016000808773ffffffffffffffffffffffffffffffffffffffff1673ffffffffffffffffffffffffffffffffffffffff16815260200190815260200160002060040160009054906101000a900463ffffffff16016000808773ffffffffffffffffffffffffffffffffffffffff1673ffffffffffffffffffffffffffffffffffffffff16815260200190815260200160002060040160006101000a81548163ffffffff021916908363ffffffff1602179055506007546000808773ffffffffffffffffffffffffffffffffffffffff1673ffffffffffffffffffffffffffffffffffffffff16815260200190815260200160002060050160008060008973ffffffffffffffffffffffffffffffffffffffff1673ffffffffffffffffffffffffffffffffffffffff16815260200190815260200160002060040160009054906101000a900463ffffffff1663ffffffff1663ffffffff16815260200190815260200160002081905550505050505050565b6000602052806000526040600020600091509050806000018054600181600116156101000203166002900480601f016020809104026020016040519081016040528092919081815260200182805460018160011615610100020316600290048015611fee5780601f10611fc357610100808354040283529160200191611fee565b820191906000526020600020905b815481529060010190602001808311611fd157829003601f168201915b5050505050908060010154908060020160009054906101000a900460ff16908060020160019054906101000a900463ffffffff16908060040160009054906101000a900463ffffffff16905085565b60035481565b6006602052806000526040600020600091509050806000015490806001018054600181600116156101000203166002900480601f0160208091040260200160405190810160405280929190818152602001828054600181600116156101000203166002900480156120f55780601f106120ca576101008083540402835291602001916120f5565b820191906000526020600020905b8154815290600101906020018083116120d857829003601f168201915b5050505050908060020160009054906101000a900473ffffffffffffffffffffffffffffffffffffffff16908060030160009054906101000a900473ffffffffffffffffffffffffffffffffffffffff1690806004018054600181600116156101000203166002900480601f0160208091040260200160405190810160405280929190818152602001828054600181600116156101000203166002900480156121df5780601f106121b4576101008083540402835291602001916121df565b820191906000526020600020905b8154815290600101906020018083116121c257829003601f168201915b5050505050908060050154908060060154905087565b60008082805190602001209050806000803373ffffffffffffffffffffffffffffffffffffffff1673ffffffffffffffffffffffffffffffffffffffff16815260200190815260200160002060010154141561225557600191505061225b565b60009150505b919050565b60046020528060005260406000206000915090508060000154908060010160009054906101000a900473ffffffffffffffffffffffffffffffffffffffff16908060020154908060030154905084565b6000806000803373ffffffffffffffffffffffffffffffffffffffff1673ffffffffffffffffffffffffffffffffffffffff16815260200190815260200160002060030160008463ffffffff1663ffffffff1681526020019081526020016000205490506004600082815260200190815260200160002060000154915050919050565b6000806000806001600087815260200190815260200160002060070160008663ffffffff1663ffffffff1681526020019081526020016000205490506004600082815260200190815260200160002060010160009054906101000a900473ffffffffffffffffffffffffffffffffffffffff1660046000838152602001908152602001600020600201546004600084815260200190815260200160002060030154935093509350509250925092565b60006006600084815260200190815260200160002060020160009054906101000a900473ffffffffffffffffffffffffffffffffffffffff1690506002600660008581526020019081526020016000206006015414156124aa576040517f08c379a00000000000000000000000000000000000000000000000000000000081526004018080602001828103825260108152602001807f616c72656164792052656a65637465640000000000000000000000000000000081525060200191505060405180910390fd5b8160066000858152602001908152602001600020600601819055506001821415612536578073ffffffffffffffffffffffffffffffffffffffff166108fc670de0b6b3a76400006006600087815260200190815260200160002060050154029081150290604051600060405180830381858888f19350505050158015612534573d6000803e3d6000fd5b505b505050565b6000806000838051906020012090506000600260003373ffffffffffffffffffffffffffffffffffffffff1673ffffffffffffffffffffffffffffffffffffffff16815260200190815260200160002054905081600160008381526020019081526020016000206005015414156125ba576001819350935050506125c7565b6000808090509350935050505b915091565b600080606060008060006001600089815260200190815260200160002060090160008863ffffffff1663ffffffff1681526020019081526020016000205490506006600082815260200190815260200160002060020160009054906101000a900473ffffffffffffffffffffffffffffffffffffffff166006600083815260200190815260200160002060030160009054906101000a900473ffffffffffffffffffffffffffffffffffffffff166006600084815260200190815260200160002060040160066000858152602001908152602001600020600501546006600086815260200190815260200160002060060154849450828054600181600116156101000203166002900480601f0160208091040260200160405190810160405280929190818152602001828054600181600116156101000203166002900480156127565780601f1061272b57610100808354040283529160200191612756565b820191906000526020600020905b81548152906001019060200180831161273957829003601f168201915b5050505050925095509550955095509550509295509295909350565b60006060806000806000806000803373ffffffffffffffffffffffffffffffffffffffff1673ffffffffffffffffffffffffffffffffffffffff16815260200190815260200160002060050160008963ffffffff1663ffffffff1681526020019081526020016000205490506006600082815260200190815260200160002060020160009054906101000a900473ffffffffffffffffffffffffffffffffffffffff1660066000838152602001908152602001600020600101600660008481526020019081526020016000206004016006600085815260200190815260200160002060050154600660008681526020019081526020016000206006015485859550848054600181600116156101000203166002900480601f0160208091040260200160405190810160405280929190818152602001828054600181600116156101000203166002900480156129085780601f106128dd57610100808354040283529160200191612908565b820191906000526020600020905b8154815290600101906020018083116128eb57829003601f168201915b50505050509450838054600181600116156101000203166002900480601f0160208091040260200160405190810160405280929190818152602001828054600181600116156101000203166002900480156129a45780601f10612979576101008083540402835291602001916129a4565b820191906000526020600020905b81548152906001019060200180831161298757829003601f168201915b505050505093509650965096509650965096505091939550919395565b828054600181600116156101000203166002900490600052602060002090601f016020900481019282601f10612a0257805160ff1916838001178555612a30565b82800160010185558215612a30579182015b82811115612a2f578251825591602001919060010190612a14565b5b509050612a3d9190612a41565b5090565b612a6391905b80821115612a5f576000816000905550600101612a47565b5090565b9056fea265627a7a72315820d07d236016f9952436897b66fe0f53832e30c713dc212b8be0461415333baf7664736f6c63430005100032",
  "source": "pragma solidity >=0.4.22 <0.7.0;\r\n\r\n\r\ncontract CrowdFunding {\r\n    //Investor data\r\n    struct investor {\r\n        bytes name;\r\n        bytes32 password;\r\n        uint8 accStatus;\r\n        uint32 investedCount;\r\n        mapping(uint32 => uint256) investedCampaigns;\r\n        uint32 requestCount;\r\n        mapping(uint32 => uint256) requests;\r\n    }\r\n    mapping(address => investor) public investors;\r\n\r\n    //Campaign data\r\n    struct campaign {\r\n        bytes title;\r\n        bytes description;\r\n        bytes teamMembers;\r\n        uint256 minContribution;\r\n        uint256 balence;\r\n        bytes32 password;\r\n        uint8 accStatus;\r\n        uint32 investedCount;\r\n        mapping(uint32 => uint256) investedCampaigns;\r\n        uint32 requestCount;\r\n        mapping(uint32 => uint256) requests;\r\n    }\r\n    mapping(uint256 => campaign) public campaigns;\r\n    mapping(address => uint256) public campaignsAddrToIndex;\r\n    uint256 public campaignCount = 0;\r\n\r\n    //Investment data\r\n    struct investedCampaign {\r\n        uint256 campID;\r\n        address investedBy;\r\n        uint256 amount;\r\n        uint256 balance;\r\n    }\r\n    mapping(uint256 => investedCampaign) public investedCampaigns;\r\n    uint256 public investmentCount = 0;\r\n\r\n    //Request data\r\n    struct request {\r\n        uint256 campID;\r\n        bytes campTitle;\r\n        address payable recipient;\r\n        address payer;\r\n        bytes purpose;\r\n        uint256 amount;\r\n        uint256 status;\r\n    }\r\n    mapping(uint256 => request) public requests;\r\n    uint256 public requestCount = 0;\r\n\r\n    //Registration\r\n    function registerInvestor(bytes memory name, bytes memory password) public {\r\n        bytes32 passHash = keccak256(password);\r\n        investors[msg.sender].name = name;\r\n        investors[msg.sender].password = passHash;\r\n        investors[msg.sender].accStatus = 1;\r\n        investors[msg.sender].investedCount = 0;\r\n        investors[msg.sender].requestCount = 0;\r\n    }\r\n\r\n    function registerCampaign(\r\n        bytes memory title,\r\n        bytes memory description,\r\n        bytes memory teamMembers,\r\n        uint256 minContribution,\r\n        bytes memory password\r\n    ) public {\r\n        campaignCount = campaignCount + 1;\r\n        bytes32 passHash = keccak256(password);\r\n        campaigns[campaignCount].title = title;\r\n        campaigns[campaignCount].description = description;\r\n        campaigns[campaignCount].teamMembers = teamMembers;\r\n        campaigns[campaignCount].minContribution = minContribution;\r\n        campaigns[campaignCount].password = passHash;\r\n        campaigns[campaignCount].accStatus = 1;\r\n        campaigns[campaignCount].investedCount = 0;\r\n        campaigns[campaignCount].requestCount = 0;\r\n        campaigns[campaignCount].balence = 0;\r\n        campaignsAddrToIndex[msg.sender] = campaignCount;\r\n    }\r\n\r\n    //Login\r\n    function loginInvestor(bytes memory password) public view returns (bool) {\r\n        bytes32 passHash = keccak256(password);\r\n        if (investors[msg.sender].password == passHash) {\r\n            return true;\r\n        } else {\r\n            return false;\r\n        }\r\n    }\r\n\r\n    function loginCampaign(bytes memory password)\r\n        public\r\n        view\r\n        returns (bool, uint256)\r\n    {\r\n        bytes32 passHash = keccak256(password);\r\n        uint256 index = campaignsAddrToIndex[msg.sender];\r\n        if (campaigns[index].password == passHash) {\r\n            return (true, index);\r\n        } else {\r\n            return (false, 0);\r\n        }\r\n    }\r\n\r\n    //Investing\r\n    function invest(uint256 campID) public payable {\r\n        investmentCount = investmentCount + 1;\r\n        investedCampaigns[investmentCount].campID = campID;\r\n        investedCampaigns[investmentCount].investedBy = msg.sender;\r\n        investedCampaigns[investmentCount].amount = msg.value;\r\n        investedCampaigns[investmentCount].balance = msg.value;\r\n        campaigns[campID].investedCount = campaigns[campID].investedCount + 1;\r\n        campaigns[campID].balence = campaigns[campID].balence + msg.value;\r\n        campaigns[campID].investedCampaigns[campaigns[campID]\r\n            .investedCount] = investmentCount;\r\n        investors[msg.sender].investedCount =\r\n            investors[msg.sender].investedCount +\r\n            1;\r\n        investors[msg.sender].investedCampaigns[investors[msg.sender]\r\n            .investedCount] = investmentCount;\r\n    }\r\n\r\n    function campaignInvestedDetails(uint256 campID, uint32 index)\r\n        public\r\n        view\r\n        returns (address, uint256, uint256)\r\n    {\r\n        uint256 detailIndex = campaigns[campID].investedCampaigns[index];\r\n        return (\r\n            investedCampaigns[detailIndex].investedBy,\r\n            investedCampaigns[detailIndex].amount,\r\n            investedCampaigns[detailIndex].balance\r\n        );\r\n    }\r\n\r\n    function investorInvestedDetails(uint32 index)\r\n        public\r\n        view\r\n        returns (uint256)\r\n    {\r\n        uint256 detailIndex = investors[msg.sender].investedCampaigns[index];\r\n        return investedCampaigns[detailIndex].campID;\r\n    }\r\n\r\n    // Requesting Payment\r\n    function requestPayment(\r\n        address payable recipient,\r\n        address payer,\r\n        uint256 campID,\r\n        bytes memory campTitle,\r\n        uint256 amount,\r\n        bytes memory purpose\r\n    ) public {\r\n        requestCount = requestCount + 1;\r\n        requests[requestCount].campID = campID;\r\n        requests[requestCount].campTitle = campTitle;\r\n        requests[requestCount].recipient = recipient;\r\n        requests[requestCount].payer = payer;\r\n        requests[requestCount].purpose = purpose;\r\n        requests[requestCount].amount = amount;\r\n        requests[requestCount].status = 0;\r\n\r\n        campaigns[campID].requestCount = campaigns[campID].requestCount + 1;\r\n        campaigns[campID].requests[campaigns[campID]\r\n            .requestCount] = requestCount;\r\n\r\n        investors[payer].requestCount = investors[payer].requestCount + 1;\r\n        investors[payer].requests[investors[payer].requestCount] = requestCount;\r\n    }\r\n\r\n    // Respond Payment\r\n    function respondPayment(uint256 requestID, uint256 responce) public {\r\n        address payable recipient = requests[requestID].recipient;\r\n        if (requests[requestID].status == 2) {\r\n            revert(\"already Rejected\");\r\n        } else {\r\n            requests[requestID].status = responce;\r\n            if (responce == 1) {\r\n                recipient.transfer(requests[requestID].amount * 1000000000000000000);\r\n            }\r\n        }\r\n    }\r\n\r\n    function campaignrequestDetails(uint256 campID, uint32 index)\r\n        public\r\n        view\r\n        returns (address, address, bytes memory, uint256, uint256)\r\n    {\r\n        uint256 detailIndex = campaigns[campID].requests[index];\r\n        return (\r\n            requests[detailIndex].recipient,\r\n            requests[detailIndex].payer,\r\n            requests[detailIndex].purpose,\r\n            requests[detailIndex].amount,\r\n            requests[detailIndex].status\r\n        );\r\n    }\r\n\r\n    function investorrequestDetails(uint32 index)\r\n        public\r\n        view\r\n        returns (address, bytes memory, bytes memory, uint256, uint256, uint256)\r\n    {\r\n        uint256 detailIndex = investors[msg.sender].requests[index];\r\n        return (\r\n            requests[detailIndex].recipient,\r\n            requests[detailIndex].campTitle,\r\n            requests[detailIndex].purpose,\r\n            requests[detailIndex].amount,\r\n            requests[detailIndex].status,\r\n            detailIndex\r\n        );\r\n    }\r\n}\r\n",
  "sourcePath": "D:/project/crowdFunding/contracts/CrowdFunding.sol",
  "compiler": {
    "name": "solc",
    "version": "0.5.16+commit.9c3226ce.Emscripten.clang"
  },
  "schemaVersion": "3.2.3",
  "updatedAt": "2020-07-28T05:09:00.265Z",
  "networkType": "ethereum",
  "devdoc": {
    "methods": {}
  },
  "userdoc": {
    "methods": {}
  }
}